{
  "_format": "hh-sol-artifact-1",
  "contractName": "QRChain",
  "sourceName": "contracts/QRChain.sol",
  "abi": [
    {
      "inputs": [],
      "stateMutability": "nonpayable",
      "type": "constructor"
    },
    {
      "anonymous": false,
      "inputs": [
        {
          "indexed": true,
          "internalType": "uint256",
          "name": "productId",
          "type": "uint256"
        },
        {
          "indexed": false,
          "internalType": "string",
          "name": "qrCode",
          "type": "string"
        },
        {
          "indexed": true,
          "internalType": "address",
          "name": "farmer",
          "type": "address"
        },
        {
          "indexed": false,
          "internalType": "string",
          "name": "initStatus",
          "type": "string"
        },
        {
          "indexed": false,
          "internalType": "uint256",
          "name": "timestamp",
          "type": "uint256"
        }
      ],
      "name": "ProductCreated",
      "type": "event"
    },
    {
      "anonymous": false,
      "inputs": [
        {
          "indexed": true,
          "internalType": "uint256",
          "name": "productId",
          "type": "uint256"
        },
        {
          "indexed": true,
          "internalType": "address",
          "name": "transporter",
          "type": "address"
        },
        {
          "indexed": false,
          "internalType": "string",
          "name": "location",
          "type": "string"
        },
        {
          "indexed": false,
          "internalType": "string",
          "name": "status",
          "type": "string"
        },
        {
          "indexed": false,
          "internalType": "uint256",
          "name": "timestamp",
          "type": "uint256"
        }
      ],
      "name": "ProductLocationUpdated",
      "type": "event"
    },
    {
      "anonymous": false,
      "inputs": [
        {
          "indexed": true,
          "internalType": "uint256",
          "name": "productId",
          "type": "uint256"
        },
        {
          "indexed": true,
          "internalType": "address",
          "name": "retailer",
          "type": "address"
        },
        {
          "indexed": false,
          "internalType": "string",
          "name": "finalStatus",
          "type": "string"
        },
        {
          "indexed": false,
          "internalType": "uint256",
          "name": "timestamp",
          "type": "uint256"
        }
      ],
      "name": "ProductStatusUpdated",
      "type": "event"
    },
    {
      "anonymous": false,
      "inputs": [
        {
          "indexed": true,
          "internalType": "address",
          "name": "user",
          "type": "address"
        },
        {
          "indexed": false,
          "internalType": "enum QRChain.Role",
          "name": "role",
          "type": "uint8"
        },
        {
          "indexed": true,
          "internalType": "address",
          "name": "assignedBy",
          "type": "address"
        }
      ],
      "name": "RoleAssigned",
      "type": "event"
    },
    {
      "anonymous": false,
      "inputs": [
        {
          "indexed": true,
          "internalType": "address",
          "name": "user",
          "type": "address"
        },
        {
          "indexed": false,
          "internalType": "enum QRChain.Role",
          "name": "previousRole",
          "type": "uint8"
        },
        {
          "indexed": true,
          "internalType": "address",
          "name": "revokedBy",
          "type": "address"
        }
      ],
      "name": "RoleRevoked",
      "type": "event"
    },
    {
      "inputs": [
        {
          "internalType": "address",
          "name": "user",
          "type": "address"
        },
        {
          "internalType": "enum QRChain.Role",
          "name": "role",
          "type": "uint8"
        }
      ],
      "name": "assignRole",
      "outputs": [],
      "stateMutability": "nonpayable",
      "type": "function"
    },
    {
      "inputs": [
        {
          "internalType": "string",
          "name": "qrCode",
          "type": "string"
        },
        {
          "internalType": "string",
          "name": "initStatus",
          "type": "string"
        }
      ],
      "name": "createProduct",
      "outputs": [],
      "stateMutability": "nonpayable",
      "type": "function"
    },
    {
      "inputs": [
        {
          "internalType": "uint256",
          "name": "productId",
          "type": "uint256"
        }
      ],
      "name": "getLatestProductStatus",
      "outputs": [
        {
          "components": [
            {
              "internalType": "address",
              "name": "actor",
              "type": "address"
            },
            {
              "internalType": "uint256",
              "name": "timestamp",
              "type": "uint256"
            },
            {
              "internalType": "string",
              "name": "location",
              "type": "string"
            },
            {
              "internalType": "string",
              "name": "status",
              "type": "string"
            },
            {
              "internalType": "string",
              "name": "note",
              "type": "string"
            }
          ],
          "internalType": "struct QRChain.ProductHistory",
          "name": "",
          "type": "tuple"
        }
      ],
      "stateMutability": "view",
      "type": "function"
    },
    {
      "inputs": [
        {
          "internalType": "uint256",
          "name": "productId",
          "type": "uint256"
        }
      ],
      "name": "getProductHistory",
      "outputs": [
        {
          "components": [
            {
              "internalType": "address",
              "name": "actor",
              "type": "address"
            },
            {
              "internalType": "uint256",
              "name": "timestamp",
              "type": "uint256"
            },
            {
              "internalType": "string",
              "name": "location",
              "type": "string"
            },
            {
              "internalType": "string",
              "name": "status",
              "type": "string"
            },
            {
              "internalType": "string",
              "name": "note",
              "type": "string"
            }
          ],
          "internalType": "struct QRChain.ProductHistory[]",
          "name": "",
          "type": "tuple[]"
        }
      ],
      "stateMutability": "view",
      "type": "function"
    },
    {
      "inputs": [
        {
          "internalType": "string",
          "name": "qrCode",
          "type": "string"
        }
      ],
      "name": "getProductIdFromQrCode",
      "outputs": [
        {
          "internalType": "uint256",
          "name": "",
          "type": "uint256"
        }
      ],
      "stateMutability": "view",
      "type": "function"
    },
    {
      "inputs": [],
      "name": "getTotalProducts",
      "outputs": [
        {
          "internalType": "uint256",
          "name": "",
          "type": "uint256"
        }
      ],
      "stateMutability": "view",
      "type": "function"
    },
    {
      "inputs": [
        {
          "internalType": "address",
          "name": "user",
          "type": "address"
        }
      ],
      "name": "getUserRole",
      "outputs": [
        {
          "internalType": "enum QRChain.Role",
          "name": "",
          "type": "uint8"
        }
      ],
      "stateMutability": "view",
      "type": "function"
    },
    {
      "inputs": [
        {
          "internalType": "address",
          "name": "user",
          "type": "address"
        },
        {
          "internalType": "enum QRChain.Role",
          "name": "role",
          "type": "uint8"
        }
      ],
      "name": "hasUserRole",
      "outputs": [
        {
          "internalType": "bool",
          "name": "",
          "type": "bool"
        }
      ],
      "stateMutability": "view",
      "type": "function"
    },
    {
      "inputs": [],
      "name": "owner",
      "outputs": [
        {
          "internalType": "address",
          "name": "",
          "type": "address"
        }
      ],
      "stateMutability": "view",
      "type": "function"
    },
    {
      "inputs": [],
      "name": "productCounter",
      "outputs": [
        {
          "internalType": "uint256",
          "name": "",
          "type": "uint256"
        }
      ],
      "stateMutability": "view",
      "type": "function"
    },
    {
      "inputs": [
        {
          "internalType": "uint256",
          "name": "",
          "type": "uint256"
        },
        {
          "internalType": "uint256",
          "name": "",
          "type": "uint256"
        }
      ],
      "name": "productHistory",
      "outputs": [
        {
          "internalType": "address",
          "name": "actor",
          "type": "address"
        },
        {
          "internalType": "uint256",
          "name": "timestamp",
          "type": "uint256"
        },
        {
          "internalType": "string",
          "name": "location",
          "type": "string"
        },
        {
          "internalType": "string",
          "name": "status",
          "type": "string"
        },
        {
          "internalType": "string",
          "name": "note",
          "type": "string"
        }
      ],
      "stateMutability": "view",
      "type": "function"
    },
    {
      "inputs": [
        {
          "internalType": "uint256",
          "name": "",
          "type": "uint256"
        }
      ],
      "name": "productIdToQrCode",
      "outputs": [
        {
          "internalType": "string",
          "name": "",
          "type": "string"
        }
      ],
      "stateMutability": "view",
      "type": "function"
    },
    {
      "inputs": [
        {
          "internalType": "string",
          "name": "",
          "type": "string"
        }
      ],
      "name": "qrCodeToProductId",
      "outputs": [
        {
          "internalType": "uint256",
          "name": "",
          "type": "uint256"
        }
      ],
      "stateMutability": "view",
      "type": "function"
    },
    {
      "inputs": [
        {
          "internalType": "address",
          "name": "user",
          "type": "address"
        }
      ],
      "name": "revokeRole",
      "outputs": [],
      "stateMutability": "nonpayable",
      "type": "function"
    },
    {
      "inputs": [
        {
          "internalType": "address",
          "name": "newOwner",
          "type": "address"
        }
      ],
      "name": "transferOwnership",
      "outputs": [],
      "stateMutability": "nonpayable",
      "type": "function"
    },
    {
      "inputs": [
        {
          "internalType": "uint256",
          "name": "productId",
          "type": "uint256"
        },
        {
          "internalType": "string",
          "name": "location",
          "type": "string"
        },
        {
          "internalType": "string",
          "name": "status",
          "type": "string"
        }
      ],
      "name": "updateProductLocation",
      "outputs": [],
      "stateMutability": "nonpayable",
      "type": "function"
    },
    {
      "inputs": [
        {
          "internalType": "uint256",
          "name": "productId",
          "type": "uint256"
        },
        {
          "internalType": "string",
          "name": "finalStatus",
          "type": "string"
        }
      ],
      "name": "updateProductStatus",
      "outputs": [],
      "stateMutability": "nonpayable",
      "type": "function"
    },
    {
      "inputs": [
        {
          "internalType": "address",
          "name": "",
          "type": "address"
        }
      ],
      "name": "userRoles",
      "outputs": [
        {
          "internalType": "enum QRChain.Role",
          "name": "",
          "type": "uint8"
        }
      ],
      "stateMutability": "view",
      "type": "function"
    }
  ],
  "bytecode": "0x608060405234801561001057600080fd5b50336000806101000a81548173ffffffffffffffffffffffffffffffffffffffff021916908373ffffffffffffffffffffffffffffffffffffffff1602179055506001600260003373ffffffffffffffffffffffffffffffffffffffff1673ffffffffffffffffffffffffffffffffffffffff16815260200190815260200160002060006101000a81548160ff021916908360038111156100b4576100b3610124565b5b02179055503373ffffffffffffffffffffffffffffffffffffffff163373ffffffffffffffffffffffffffffffffffffffff167f2459ac88ac07c4020108de12f1f8675bbf7e6928b4cfc156bde4727aacf789736001604051610117919061019b565b60405180910390a36101b6565b7f4e487b7100000000000000000000000000000000000000000000000000000000600052602160045260246000fd5b6004811061016457610163610124565b5b50565b600081905061017582610153565b919050565b600061018582610167565b9050919050565b6101958161017a565b82525050565b60006020820190506101b0600083018461018c565b92915050565b613a0a806101c56000396000f3fe608060405234801561001057600080fd5b50600436106101165760003560e01c806374d5e100116100a2578063a078f73711610071578063a078f7371461031d578063af857f9f1461034d578063ba42957814610369578063d605d16714610385578063f2fde38b146103b557610116565b806374d5e1001461029757806380e52e3f146102c757806387592bce146102e35780638da5cb5b146102ff57610116565b8063511296ca116100e9578063511296ca146101cd578063570aea8a146101fd57806357a096a11461021b578063630a195b1461024b5780636e96fcce1461026757610116565b80631f16653b1461011b578063278208511461013957806335f56e09146101695780633a7d237614610199575b600080fd5b6101236103d1565b604051610130919061222b565b60405180910390f35b610153600480360381019061014e91906122b8565b6103d7565b604051610160919061235c565b60405180910390f35b610183600480360381019061017e91906123a3565b61042d565b6040516101909190612502565b60405180910390f35b6101b360048036038101906101ae9190612524565b61075c565b6040516101c49594939291906125bd565b60405180910390f35b6101e760048036038101906101e2919061275a565b610967565b6040516101f4919061222b565b60405180910390f35b6102056109d7565b604051610212919061222b565b60405180910390f35b610235600480360381019061023091906123a3565b6109e1565b60405161024291906128e9565b60405180910390f35b61026560048036038101906102609190612930565b610cba565b005b610281600480360381019061027c91906123a3565b610fd2565b60405161028e9190612970565b60405180910390f35b6102b160048036038101906102ac91906122b8565b611072565b6040516102be919061235c565b60405180910390f35b6102e160048036038101906102dc91906122b8565b611092565b005b6102fd60048036038101906102f89190612992565b6113a6565b005b61030761177b565b6040516103149190612a0a565b60405180910390f35b61033760048036038101906103329190612930565b61179f565b6040516103449190612a40565b60405180910390f35b61036760048036038101906103629190612a5b565b61181c565b005b610383600480360381019061037e9190612ae6565b611b49565b005b61039f600480360381019061039a919061275a565b611e63565b6040516103ac919061222b565b60405180910390f35b6103cf60048036038101906103ca91906122b8565b611e91565b005b60015481565b6000600260008373ffffffffffffffffffffffffffffffffffffffff1673ffffffffffffffffffffffffffffffffffffffff16815260200190815260200160002060009054906101000a900460ff169050919050565b6104356121cd565b60008211801561044757506001548211155b610486576040517f08c379a000000000000000000000000000000000000000000000000000000000815260040161047d90612b8e565b60405180910390fd5b60006004600084815260200190815260200160002080549050116104df576040517f08c379a00000000000000000000000000000000000000000000000000000000081526004016104d690612c20565b60405180910390fd5b60046000838152602001908152602001600020600160046000858152602001908152602001600020805490506105159190612c6f565b8154811061052657610525612ca3565b5b90600052602060002090600502016040518060a00160405290816000820160009054906101000a900473ffffffffffffffffffffffffffffffffffffffff1673ffffffffffffffffffffffffffffffffffffffff1673ffffffffffffffffffffffffffffffffffffffff168152602001600182015481526020016002820180546105af90612d01565b80601f01602080910402602001604051908101604052809291908181526020018280546105db90612d01565b80156106285780601f106105fd57610100808354040283529160200191610628565b820191906000526020600020905b81548152906001019060200180831161060b57829003601f168201915b5050505050815260200160038201805461064190612d01565b80601f016020809104026020016040519081016040528092919081815260200182805461066d90612d01565b80156106ba5780601f1061068f576101008083540402835291602001916106ba565b820191906000526020600020905b81548152906001019060200180831161069d57829003601f168201915b505050505081526020016004820180546106d390612d01565b80601f01602080910402602001604051908101604052809291908181526020018280546106ff90612d01565b801561074c5780601f106107215761010080835404028352916020019161074c565b820191906000526020600020905b81548152906001019060200180831161072f57829003601f168201915b5050505050815250509050919050565b6004602052816000526040600020818154811061077857600080fd5b9060005260206000209060050201600091509150508060000160009054906101000a900473ffffffffffffffffffffffffffffffffffffffff16908060010154908060020180546107c890612d01565b80601f01602080910402602001604051908101604052809291908181526020018280546107f490612d01565b80156108415780601f1061081657610100808354040283529160200191610841565b820191906000526020600020905b81548152906001019060200180831161082457829003601f168201915b50505050509080600301805461085690612d01565b80601f016020809104026020016040519081016040528092919081815260200182805461088290612d01565b80156108cf5780601f106108a4576101008083540402835291602001916108cf565b820191906000526020600020905b8154815290600101906020018083116108b257829003601f168201915b5050505050908060040180546108e490612d01565b80601f016020809104026020016040519081016040528092919081815260200182805461091090612d01565b801561095d5780601f106109325761010080835404028352916020019161095d565b820191906000526020600020905b81548152906001019060200180831161094057829003601f168201915b5050505050905085565b60008060038360405161097a9190612d6e565b9081526020016040518091039020549050600081116109ce576040517f08c379a00000000000000000000000000000000000000000000000000000000081526004016109c590612df7565b60405180910390fd5b80915050919050565b6000600154905090565b60606000821180156109f557506001548211155b610a34576040517f08c379a0000000000000000000000000000000000000000000000000000000008152600401610a2b90612b8e565b60405180910390fd5b60046000838152602001908152602001600020805480602002602001604051908101604052809291908181526020016000905b82821015610caf57838290600052602060002090600502016040518060a00160405290816000820160009054906101000a900473ffffffffffffffffffffffffffffffffffffffff1673ffffffffffffffffffffffffffffffffffffffff1673ffffffffffffffffffffffffffffffffffffffff16815260200160018201548152602001600282018054610afa90612d01565b80601f0160208091040260200160405190810160405280929190818152602001828054610b2690612d01565b8015610b735780601f10610b4857610100808354040283529160200191610b73565b820191906000526020600020905b815481529060010190602001808311610b5657829003601f168201915b50505050508152602001600382018054610b8c90612d01565b80601f0160208091040260200160405190810160405280929190818152602001828054610bb890612d01565b8015610c055780601f10610bda57610100808354040283529160200191610c05565b820191906000526020600020905b815481529060010190602001808311610be857829003601f168201915b50505050508152602001600482018054610c1e90612d01565b80601f0160208091040260200160405190810160405280929190818152602001828054610c4a90612d01565b8015610c975780601f10610c6c57610100808354040283529160200191610c97565b820191906000526020600020905b815481529060010190602001808311610c7a57829003601f168201915b50505050508152505081526020019060010190610a67565b505050509050919050565b60008054906101000a900473ffffffffffffffffffffffffffffffffffffffff1673ffffffffffffffffffffffffffffffffffffffff163373ffffffffffffffffffffffffffffffffffffffff1614610d48576040517f08c379a0000000000000000000000000000000000000000000000000000000008152600401610d3f90612e89565b60405180910390fd5b600073ffffffffffffffffffffffffffffffffffffffff168273ffffffffffffffffffffffffffffffffffffffff1603610db7576040517f08c379a0000000000000000000000000000000000000000000000000000000008152600401610dae90612f1b565b60405180910390fd5b60006003811115610dcb57610dca6122e5565b5b816003811115610dde57610ddd6122e5565b5b03610e1e576040517f08c379a0000000000000000000000000000000000000000000000000000000008152600401610e1590612f87565b60405180910390fd5b6000600260008473ffffffffffffffffffffffffffffffffffffffff1673ffffffffffffffffffffffffffffffffffffffff16815260200190815260200160002060009054906101000a900460ff16905081600260008573ffffffffffffffffffffffffffffffffffffffff1673ffffffffffffffffffffffffffffffffffffffff16815260200190815260200160002060006101000a81548160ff02191690836003811115610ed157610ed06122e5565b5b02179055503373ffffffffffffffffffffffffffffffffffffffff168373ffffffffffffffffffffffffffffffffffffffff167f2459ac88ac07c4020108de12f1f8675bbf7e6928b4cfc156bde4727aacf7897384604051610f33919061235c565b60405180910390a360006003811115610f4f57610f4e6122e5565b5b816003811115610f6257610f616122e5565b5b14610fcd573373ffffffffffffffffffffffffffffffffffffffff168373ffffffffffffffffffffffffffffffffffffffff167fdc8ee88592cee6126ab42f95859fdf2bbf7b0a614a14d4fb307b601e2b5b0b0583604051610fc4919061235c565b60405180910390a35b505050565b60056020528060005260406000206000915090508054610ff190612d01565b80601f016020809104026020016040519081016040528092919081815260200182805461101d90612d01565b801561106a5780601f1061103f5761010080835404028352916020019161106a565b820191906000526020600020905b81548152906001019060200180831161104d57829003601f168201915b505050505081565b60026020528060005260406000206000915054906101000a900460ff1681565b60008054906101000a900473ffffffffffffffffffffffffffffffffffffffff1673ffffffffffffffffffffffffffffffffffffffff163373ffffffffffffffffffffffffffffffffffffffff1614611120576040517f08c379a000000000000000000000000000000000000000000000000000000000815260040161111790612e89565b60405180910390fd5b600073ffffffffffffffffffffffffffffffffffffffff168173ffffffffffffffffffffffffffffffffffffffff160361118f576040517f08c379a000000000000000000000000000000000000000000000000000000000815260040161118690613019565b60405180910390fd5b60008054906101000a900473ffffffffffffffffffffffffffffffffffffffff1673ffffffffffffffffffffffffffffffffffffffff168173ffffffffffffffffffffffffffffffffffffffff160361121d576040517f08c379a0000000000000000000000000000000000000000000000000000000008152600401611214906130ab565b60405180910390fd5b6000600260008373ffffffffffffffffffffffffffffffffffffffff1673ffffffffffffffffffffffffffffffffffffffff16815260200190815260200160002060009054906101000a900460ff16905060006003811115611282576112816122e5565b5b816003811115611295576112946122e5565b5b036112d5576040517f08c379a00000000000000000000000000000000000000000000000000000000081526004016112cc90613117565b60405180910390fd5b6000600260008473ffffffffffffffffffffffffffffffffffffffff1673ffffffffffffffffffffffffffffffffffffffff16815260200190815260200160002060006101000a81548160ff02191690836003811115611338576113376122e5565b5b02179055503373ffffffffffffffffffffffffffffffffffffffff168273ffffffffffffffffffffffffffffffffffffffff167fdc8ee88592cee6126ab42f95859fdf2bbf7b0a614a14d4fb307b601e2b5b0b058360405161139a919061235c565b60405180910390a35050565b600160038111156113ba576113b96122e5565b5b600260003373ffffffffffffffffffffffffffffffffffffffff1673ffffffffffffffffffffffffffffffffffffffff16815260200190815260200160002060009054906101000a900460ff166003811115611419576114186122e5565b5b14611459576040517f08c379a0000000000000000000000000000000000000000000000000000000008152600401611450906131a9565b60405180910390fd5b600060038360405161146b9190612d6e565b908152602001604051809103902054146114ba576040517f08c379a00000000000000000000000000000000000000000000000000000000081526004016114b19061323b565b60405180910390fd5b60008251116114fe576040517f08c379a00000000000000000000000000000000000000000000000000000000081526004016114f5906132a7565b60405180910390fd5b6000815111611542576040517f08c379a000000000000000000000000000000000000000000000000000000000815260040161153990613313565b60405180910390fd5b6001600081548092919061155590613333565b919050555060006001549050806003846040516115729190612d6e565b908152602001604051809103902081905550826005600083815260200190815260200160002090816115a49190613527565b5060006040518060a001604052803373ffffffffffffffffffffffffffffffffffffffff1681526020014281526020016040518060400160405280600481526020017f4661726d0000000000000000000000000000000000000000000000000000000081525081526020018481526020016040518060400160405280601981526020017f50726f647563742063726561746564206279206661726d65720000000000000081525081525090506004600083815260200190815260200160002081908060018154018082558091505060019003906000526020600020906005020160009091909190915060008201518160000160006101000a81548173ffffffffffffffffffffffffffffffffffffffff021916908373ffffffffffffffffffffffffffffffffffffffff1602179055506020820151816001015560408201518160020190816116f39190613527565b5060608201518160030190816117099190613527565b50608082015181600401908161171f9190613527565b5050503373ffffffffffffffffffffffffffffffffffffffff16827f1fa1d62212c88c1b4cd8148fac12a115fd02563e191b7110d727d0e5ec5946e886864260405161176d939291906135f9565b60405180910390a350505050565b60008054906101000a900473ffffffffffffffffffffffffffffffffffffffff1681565b60008160038111156117b4576117b36122e5565b5b600260008573ffffffffffffffffffffffffffffffffffffffff1673ffffffffffffffffffffffffffffffffffffffff16815260200190815260200160002060009054906101000a900460ff166003811115611813576118126122e5565b5b14905092915050565b600260038111156118305761182f6122e5565b5b600260003373ffffffffffffffffffffffffffffffffffffffff1673ffffffffffffffffffffffffffffffffffffffff16815260200190815260200160002060009054906101000a900460ff16600381111561188f5761188e6122e5565b5b146118cf576040517f08c379a00000000000000000000000000000000000000000000000000000000081526004016118c6906136b0565b60405180910390fd5b6000831180156118e157506001548311155b611920576040517f08c379a000000000000000000000000000000000000000000000000000000000815260040161191790612b8e565b60405180910390fd5b6000825111611964576040517f08c379a000000000000000000000000000000000000000000000000000000000815260040161195b9061371c565b60405180910390fd5b60008151116119a8576040517f08c379a000000000000000000000000000000000000000000000000000000000815260040161199f90613788565b60405180910390fd5b60006040518060a001604052803373ffffffffffffffffffffffffffffffffffffffff1681526020014281526020018481526020018381526020016040518060400160405280601f81526020017f4c6f636174696f6e2075706461746564206279207472616e73706f727465720081525081525090506004600085815260200190815260200160002081908060018154018082558091505060019003906000526020600020906005020160009091909190915060008201518160000160006101000a81548173ffffffffffffffffffffffffffffffffffffffff021916908373ffffffffffffffffffffffffffffffffffffffff160217905550602082015181600101556040820151816002019081611ac19190613527565b506060820151816003019081611ad79190613527565b506080820151816004019081611aed9190613527565b5050503373ffffffffffffffffffffffffffffffffffffffff16847f4bc129c05e22b578ae45372689dea1e94138d2e2595f6994e20beed09422ac0e858542604051611b3b939291906135f9565b60405180910390a350505050565b600380811115611b5c57611b5b6122e5565b5b600260003373ffffffffffffffffffffffffffffffffffffffff1673ffffffffffffffffffffffffffffffffffffffff16815260200190815260200160002060009054906101000a900460ff166003811115611bbb57611bba6122e5565b5b14611bfb576040517f08c379a0000000000000000000000000000000000000000000000000000000008152600401611bf29061381a565b60405180910390fd5b600082118015611c0d57506001548211155b611c4c576040517f08c379a0000000000000000000000000000000000000000000000000000000008152600401611c4390612b8e565b60405180910390fd5b6000815111611c90576040517f08c379a0000000000000000000000000000000000000000000000000000000008152600401611c8790613886565b60405180910390fd5b60006040518060a001604052803373ffffffffffffffffffffffffffffffffffffffff1681526020014281526020016040518060400160405280600c81526020017f52657461696c2053746f7265000000000000000000000000000000000000000081525081526020018381526020016040518060400160405280602081526020017f46696e616c2073746174757320757064617465642062792072657461696c657281525081525090506004600084815260200190815260200160002081908060018154018082558091505060019003906000526020600020906005020160009091909190915060008201518160000160006101000a81548173ffffffffffffffffffffffffffffffffffffffff021916908373ffffffffffffffffffffffffffffffffffffffff160217905550602082015181600101556040820151816002019081611dde9190613527565b506060820151816003019081611df49190613527565b506080820151816004019081611e0a9190613527565b5050503373ffffffffffffffffffffffffffffffffffffffff16837f997805c5da97f487aa39e47cb8322da5a5dafbf5c4bc60889b8684012d7a97478442604051611e569291906138a6565b60405180910390a3505050565b6003818051602081018201805184825260208301602085012081835280955050505050506000915090505481565b60008054906101000a900473ffffffffffffffffffffffffffffffffffffffff1673ffffffffffffffffffffffffffffffffffffffff163373ffffffffffffffffffffffffffffffffffffffff1614611f1f576040517f08c379a0000000000000000000000000000000000000000000000000000000008152600401611f1690612e89565b60405180910390fd5b600073ffffffffffffffffffffffffffffffffffffffff168173ffffffffffffffffffffffffffffffffffffffff1603611f8e576040517f08c379a0000000000000000000000000000000000000000000000000000000008152600401611f8590613922565b60405180910390fd5b60008054906101000a900473ffffffffffffffffffffffffffffffffffffffff1673ffffffffffffffffffffffffffffffffffffffff168173ffffffffffffffffffffffffffffffffffffffff160361201c576040517f08c379a0000000000000000000000000000000000000000000000000000000008152600401612013906139b4565b60405180910390fd5b60008060009054906101000a900473ffffffffffffffffffffffffffffffffffffffff169050816000806101000a81548173ffffffffffffffffffffffffffffffffffffffff021916908373ffffffffffffffffffffffffffffffffffffffff16021790555060006003811115612096576120956122e5565b5b600260008473ffffffffffffffffffffffffffffffffffffffff1673ffffffffffffffffffffffffffffffffffffffff16815260200190815260200160002060009054906101000a900460ff1660038111156120f5576120f46122e5565b5b036121c9576001600260008473ffffffffffffffffffffffffffffffffffffffff1673ffffffffffffffffffffffffffffffffffffffff16815260200190815260200160002060006101000a81548160ff0219169083600381111561215d5761215c6122e5565b5b02179055508073ffffffffffffffffffffffffffffffffffffffff168273ffffffffffffffffffffffffffffffffffffffff167f2459ac88ac07c4020108de12f1f8675bbf7e6928b4cfc156bde4727aacf7897360016040516121c0919061235c565b60405180910390a35b5050565b6040518060a00160405280600073ffffffffffffffffffffffffffffffffffffffff168152602001600081526020016060815260200160608152602001606081525090565b6000819050919050565b61222581612212565b82525050565b6000602082019050612240600083018461221c565b92915050565b6000604051905090565b600080fd5b600080fd5b600073ffffffffffffffffffffffffffffffffffffffff82169050919050565b60006122858261225a565b9050919050565b6122958161227a565b81146122a057600080fd5b50565b6000813590506122b28161228c565b92915050565b6000602082840312156122ce576122cd612250565b5b60006122dc848285016122a3565b91505092915050565b7f4e487b7100000000000000000000000000000000000000000000000000000000600052602160045260246000fd5b60048110612325576123246122e5565b5b50565b600081905061233682612314565b919050565b600061234682612328565b9050919050565b6123568161233b565b82525050565b6000602082019050612371600083018461234d565b92915050565b61238081612212565b811461238b57600080fd5b50565b60008135905061239d81612377565b92915050565b6000602082840312156123b9576123b8612250565b5b60006123c78482850161238e565b91505092915050565b6123d98161227a565b82525050565b6123e881612212565b82525050565b600081519050919050565b600082825260208201905092915050565b60005b8381101561242857808201518184015260208101905061240d565b60008484015250505050565b6000601f19601f8301169050919050565b6000612450826123ee565b61245a81856123f9565b935061246a81856020860161240a565b61247381612434565b840191505092915050565b600060a08301600083015161249660008601826123d0565b5060208301516124a960208601826123df565b50604083015184820360408601526124c18282612445565b915050606083015184820360608601526124db8282612445565b915050608083015184820360808601526124f58282612445565b9150508091505092915050565b6000602082019050818103600083015261251c818461247e565b905092915050565b6000806040838503121561253b5761253a612250565b5b60006125498582860161238e565b925050602061255a8582860161238e565b9150509250929050565b61256d8161227a565b82525050565b600082825260208201905092915050565b600061258f826123ee565b6125998185612573565b93506125a981856020860161240a565b6125b281612434565b840191505092915050565b600060a0820190506125d26000830188612564565b6125df602083018761221c565b81810360408301526125f18186612584565b905081810360608301526126058185612584565b905081810360808301526126198184612584565b90509695505050505050565b600080fd5b600080fd5b7f4e487b7100000000000000000000000000000000000000000000000000000000600052604160045260246000fd5b61266782612434565b810181811067ffffffffffffffff821117156126865761268561262f565b5b80604052505050565b6000612699612246565b90506126a5828261265e565b919050565b600067ffffffffffffffff8211156126c5576126c461262f565b5b6126ce82612434565b9050602081019050919050565b82818337600083830152505050565b60006126fd6126f8846126aa565b61268f565b9050828152602081018484840111156127195761271861262a565b5b6127248482856126db565b509392505050565b600082601f83011261274157612740612625565b5b81356127518482602086016126ea565b91505092915050565b6000602082840312156127705761276f612250565b5b600082013567ffffffffffffffff81111561278e5761278d612255565b5b61279a8482850161272c565b91505092915050565b600081519050919050565b600082825260208201905092915050565b6000819050602082019050919050565b600060a0830160008301516127e760008601826123d0565b5060208301516127fa60208601826123df565b50604083015184820360408601526128128282612445565b9150506060830151848203606086015261282c8282612445565b915050608083015184820360808601526128468282612445565b9150508091505092915050565b600061285f83836127cf565b905092915050565b6000602082019050919050565b600061287f826127a3565b61288981856127ae565b93508360208202850161289b856127bf565b8060005b858110156128d757848403895281516128b88582612853565b94506128c383612867565b925060208a0199505060018101905061289f565b50829750879550505050505092915050565b600060208201905081810360008301526129038184612874565b905092915050565b6004811061291857600080fd5b50565b60008135905061292a8161290b565b92915050565b6000806040838503121561294757612946612250565b5b6000612955858286016122a3565b92505060206129668582860161291b565b9150509250929050565b6000602082019050818103600083015261298a8184612584565b905092915050565b600080604083850312156129a9576129a8612250565b5b600083013567ffffffffffffffff8111156129c7576129c6612255565b5b6129d38582860161272c565b925050602083013567ffffffffffffffff8111156129f4576129f3612255565b5b612a008582860161272c565b9150509250929050565b6000602082019050612a1f6000830184612564565b92915050565b60008115159050919050565b612a3a81612a25565b82525050565b6000602082019050612a556000830184612a31565b92915050565b600080600060608486031215612a7457612a73612250565b5b6000612a828682870161238e565b935050602084013567ffffffffffffffff811115612aa357612aa2612255565b5b612aaf8682870161272c565b925050604084013567ffffffffffffffff811115612ad057612acf612255565b5b612adc8682870161272c565b9150509250925092565b60008060408385031215612afd57612afc612250565b5b6000612b0b8582860161238e565b925050602083013567ffffffffffffffff811115612b2c57612b2b612255565b5b612b388582860161272c565b9150509250929050565b7f50726f6475637420646f6573206e6f7420657869737400000000000000000000600082015250565b6000612b78601683612573565b9150612b8382612b42565b602082019050919050565b60006020820190508181036000830152612ba781612b6b565b9050919050565b7f4e6f20686973746f727920666f756e6420666f7220746869732070726f64756360008201527f7400000000000000000000000000000000000000000000000000000000000000602082015250565b6000612c0a602183612573565b9150612c1582612bae565b604082019050919050565b60006020820190508181036000830152612c3981612bfd565b9050919050565b7f4e487b7100000000000000000000000000000000000000000000000000000000600052601160045260246000fd5b6000612c7a82612212565b9150612c8583612212565b9250828203905081811115612c9d57612c9c612c40565b5b92915050565b7f4e487b7100000000000000000000000000000000000000000000000000000000600052603260045260246000fd5b7f4e487b7100000000000000000000000000000000000000000000000000000000600052602260045260246000fd5b60006002820490506001821680612d1957607f821691505b602082108103612d2c57612d2b612cd2565b5b50919050565b600081905092915050565b6000612d48826123ee565b612d528185612d32565b9350612d6281856020860161240a565b80840191505092915050565b6000612d7a8284612d3d565b915081905092915050565b7f50726f647563742077697468207468697320515220636f646520646f6573206e60008201527f6f74206578697374000000000000000000000000000000000000000000000000602082015250565b6000612de1602883612573565b9150612dec82612d85565b604082019050919050565b60006020820190508181036000830152612e1081612dd4565b9050919050565b7f4f6e6c7920636f6e7472616374206f776e65722063616e20706572666f726d2060008201527f7468697320616374696f6e000000000000000000000000000000000000000000602082015250565b6000612e73602b83612573565b9150612e7e82612e17565b604082019050919050565b60006020820190508181036000830152612ea281612e66565b9050919050565b7f43616e6e6f742061737369676e20726f6c6520746f207a65726f20616464726560008201527f7373000000000000000000000000000000000000000000000000000000000000602082015250565b6000612f05602283612573565b9150612f1082612ea9565b604082019050919050565b60006020820190508181036000830152612f3481612ef8565b9050919050565b7f43616e6e6f742061737369676e204e4f4e4520726f6c65000000000000000000600082015250565b6000612f71601783612573565b9150612f7c82612f3b565b602082019050919050565b60006020820190508181036000830152612fa081612f64565b9050919050565b7f43616e6e6f74207265766f6b6520726f6c652066726f6d207a65726f2061646460008201527f7265737300000000000000000000000000000000000000000000000000000000602082015250565b6000613003602483612573565b915061300e82612fa7565b604082019050919050565b6000602082019050818103600083015261303281612ff6565b9050919050565b7f43616e6e6f74207265766f6b6520726f6c652066726f6d20636f6e747261637460008201527f206f776e65720000000000000000000000000000000000000000000000000000602082015250565b6000613095602683612573565b91506130a082613039565b604082019050919050565b600060208201905081810360008301526130c481613088565b9050919050565b7f5573657220686173206e6f20726f6c6520746f207265766f6b65000000000000600082015250565b6000613101601a83612573565b915061310c826130cb565b602082019050919050565b60006020820190508181036000830152613130816130f4565b9050919050565b7f4f6e6c79206661726d6572732063616e20706572666f726d207468697320616360008201527f74696f6e00000000000000000000000000000000000000000000000000000000602082015250565b6000613193602483612573565b915061319e82613137565b604082019050919050565b600060208201905081810360008301526131c281613186565b9050919050565b7f50726f647563742077697468207468697320515220636f646520616c7265616460008201527f7920657869737473000000000000000000000000000000000000000000000000602082015250565b6000613225602883612573565b9150613230826131c9565b604082019050919050565b6000602082019050818103600083015261325481613218565b9050919050565b7f515220636f64652063616e6e6f7420626520656d707479000000000000000000600082015250565b6000613291601783612573565b915061329c8261325b565b602082019050919050565b600060208201905081810360008301526132c081613284565b9050919050565b7f496e697469616c207374617475732063616e6e6f7420626520656d7074790000600082015250565b60006132fd601e83612573565b9150613308826132c7565b602082019050919050565b6000602082019050818103600083015261332c816132f0565b9050919050565b600061333e82612212565b91507fffffffffffffffffffffffffffffffffffffffffffffffffffffffffffffffff82036133705761336f612c40565b5b600182019050919050565b60008190508160005260206000209050919050565b60006020601f8301049050919050565b600082821b905092915050565b6000600883026133dd7fffffffffffffffffffffffffffffffffffffffffffffffffffffffffffffffff826133a0565b6133e786836133a0565b95508019841693508086168417925050509392505050565b6000819050919050565b600061342461341f61341a84612212565b6133ff565b612212565b9050919050565b6000819050919050565b61343e83613409565b61345261344a8261342b565b8484546133ad565b825550505050565b600090565b61346761345a565b613472818484613435565b505050565b5b818110156134965761348b60008261345f565b600181019050613478565b5050565b601f8211156134db576134ac8161337b565b6134b584613390565b810160208510156134c4578190505b6134d86134d085613390565b830182613477565b50505b505050565b600082821c905092915050565b60006134fe600019846008026134e0565b1980831691505092915050565b600061351783836134ed565b9150826002028217905092915050565b613530826123ee565b67ffffffffffffffff8111156135495761354861262f565b5b6135538254612d01565b61355e82828561349a565b600060209050601f831160018114613591576000841561357f578287015190505b613589858261350b565b8655506135f1565b601f19841661359f8661337b565b60005b828110156135c7578489015182556001820191506020850194506020810190506135a2565b868310156135e457848901516135e0601f8916826134ed565b8355505b6001600288020188555050505b505050505050565b600060608201905081810360008301526136138186612584565b905081810360208301526136278185612584565b9050613636604083018461221c565b949350505050565b7f4f6e6c79207472616e73706f72746572732063616e20706572666f726d20746860008201527f697320616374696f6e0000000000000000000000000000000000000000000000602082015250565b600061369a602983612573565b91506136a58261363e565b604082019050919050565b600060208201905081810360008301526136c98161368d565b9050919050565b7f4c6f636174696f6e2063616e6e6f7420626520656d7074790000000000000000600082015250565b6000613706601883612573565b9150613711826136d0565b602082019050919050565b60006020820190508181036000830152613735816136f9565b9050919050565b7f5374617475732063616e6e6f7420626520656d70747900000000000000000000600082015250565b6000613772601683612573565b915061377d8261373c565b602082019050919050565b600060208201905081810360008301526137a181613765565b9050919050565b7f4f6e6c792072657461696c6572732063616e20706572666f726d20746869732060008201527f616374696f6e0000000000000000000000000000000000000000000000000000602082015250565b6000613804602683612573565b915061380f826137a8565b604082019050919050565b60006020820190508181036000830152613833816137f7565b9050919050565b7f46696e616c207374617475732063616e6e6f7420626520656d70747900000000600082015250565b6000613870601c83612573565b915061387b8261383a565b602082019050919050565b6000602082019050818103600083015261389f81613863565b9050919050565b600060408201905081810360008301526138c08185612584565b90506138cf602083018461221c565b9392505050565b7f4e6577206f776e65722063616e6e6f74206265207a65726f2061646472657373600082015250565b600061390c602083612573565b9150613917826138d6565b602082019050919050565b6000602082019050818103600083015261393b816138ff565b9050919050565b7f4e6577206f776e6572206d75737420626520646966666572656e742066726f6d60008201527f2063757272656e74206f776e6572000000000000000000000000000000000000602082015250565b600061399e602e83612573565b91506139a982613942565b604082019050919050565b600060208201905081810360008301526139cd81613991565b905091905056fea26469706673582212203c456c5b972991cf879fb3dd728c481af267883ba69cd000b7aeac4e04b0e6c064736f6c634300081c0033",
  "linkReferences": {},
  "deployedLinkReferences": {}
}